:020000040800F2
:10000000B00400209D0100088315000817140008A3
:1000100081150008D10300087717000800000000D0
:10002000000000000000000000000000871500082C
:10003000D30300080000000085150008891500089A
:10004000B7010008B7010008B7010008B7010008B0
:10005000B7010008B7010008D5030008DB0300085A
:10006000E1030008B7010008B7010008B701000864
:10007000B7010008B7010008B7010008B701000880
:10008000B7010008B7010008B7010008B701000870
:10009000B7010008B7010008B7010008B701000860
:1000A000B7010008B7010008B7010008B701000850
:1000B00039160008B7010008B7010008B7010008A9
:1000C000B7010008B7010008B7010008B701000830
:1000D000B7010008B7010008B7010008B701000820
:1000E000B7010008B7010008B7010008B701000810
:1000F000B7010008B7010008B7010008B701000800
:10010000B7010008B7010008B7010008B7010008EF
:10011000B7010008B7010008B7010008B7010008DF
:10012000B7010008B7010008B7010008B7010008CF
:10013000B7010008B7010008B7010008B7010008BF
:10014000B7010008B7010008B7010008B7010008AF
:10015000B7010008B7010008B7010008B70100089F
:10016000B7010008B7010008B7010008B70100088F
:10017000B7010008B7010008B7010008000000003F
:10018000B7010008B7010008DFF80CD000F07AF8DA
:100190000048004741180008B00400200648804786
:1001A00006480047FEE7FEE7FEE7FEE7FEE7FEE75C
:1001B000FEE7FEE7FEE7FEE71D16000889010008DE
:1001C0002DE9F05F0546002092469B46884606468C
:1001D000814640241BE0284641464746224600F01F
:1001E00041F853465A46C01A914110D31146184659
:1001F000224600F028F82D1A67EB01084F462246E8
:100200000120002100F01FF817EB00094E41201ECD
:10021000A4F10104DFDC484631462A464346BDE8E6
:10022000F09FD2B201E000F8012B491EFBD27047CB
:100230000022F6E710B513460A4604461946FFF7B2
:10024000F0FF204610BD202A04DB203A00FA02F11C
:10025000002070479140C2F1200320FA03F31943B4
:1002600090407047202A04DB203A21FA02F0002156
:10027000704721FA02F3D040C2F1200291400843B6
:1002800019467047064C074D06E0E06840F0010350
:1002900094E8070098471034AC42F6D3FFF778FF94
:1002A0006419000884190008464910B54A6822F408
:1002B00040324A604A6843681A434A6001684A68A3
:1002C00022F480724A6001684A68036942EA0322A4
:1002D0004A6001684A6822F040724A6001684A68D0
:1002E00083681A434A6001688A6822F400628A605F
:1002F00001688A68C3681A438A60816A6FF0706215
:10030000D14201688A6822F070628A6001688A6856
:100310000CD0836A1A438A6001688A6822F04052CE
:100320008A6001688A68C36A1A4301E022F0405279
:100330008A6001688A6822F002028A6001688A681D
:10034000037E42EA43028A6090F820100029016887
:100350004A680FD042F400624A6001684A6822F499
:1003600060424A6001684A68174C436A04EB4333B1
:100370001A4301E022F400624A600168CA6A22F46A
:100380007002CA620168CA6A838B104C04EB035383
:100390001A43CA6201688A6822F400728A6001689E
:1003A0008A6890F8303042EA43228A6001688A689D
:1003B00022F480628A6001688A68406942EA80208B
:1003C000886010BD0023014000E0FFFF0000F0FF47
:1003D000FEE77047012000F023BA022000F020BAA7
:1003E000042000F01DBA000078B50024009490F8B5
:1003F0003C20012A19D0012280F83C200A680723FA
:100400000568092A13D9EE680A3A02EB42029340C2
:100410009E43EE600B788A680A3B03EB43039A40E5
:100420000368DD682A43DA6010E0022078BD2E6997
:1004300002EB420293409E432E610B788A6803EBE5
:1004400043039A4003681D692A431A614A681F23BF
:10045000072A13D205686E6B521E02EB820293408C
:100460009E436E630B790A885B1E92B203EB830393
:100470009A4003685D6B2A435A6327E005680D2A9A
:1004800012D22E6BD21F02EB820293409E432E6348
:100490000B790A88DB1F92B203EB83039A4003684F
:1004A0001D6B2A431A6311E0EE6A0D3A02EB8202D9
:1004B00093409E43EE620B790A880D3B92B203EBA8
:1004C00083039A400368DD6A2A43DA62164B0568A3
:1004D000144A9D4206D10D68122D03D1556845F48A
:1004E0008005556005689D4218D10B68102B01D01E
:1004F000112B13D1536843F400035360096810298A
:100500000CD10A490A4A0968B1FBF2F101EB8101F9
:10051000490000E0491E00910029FBD180F83C40D1
:10052000002078BD00230140002001402000002071
:1005300040420F000068C06C704770B504004FF077
:10054000000503D0206C002610B107E0012070BD2B
:10055000204600F01DF8666484F83C60206CC006FC
:1005600010D4206C20F4885040F002002064204613
:10057000FFF79AFE6664206C20F0020040F0010054
:10058000206400E0012584F83C60284670BD00002E
:1005900010B586B0044614216846FFF749FE11499C
:1005A000206888421CD110480021026842F4807201
:1005B0000260006800F4807005900B4814380268EF
:1005C00042F001020260006800F001000590802006
:1005D00000900320CDE901016946044800F02CF9A0
:1005E00006B010BD00200140443802400000024027
:1005F0002DE9F041044600680D4681684FF0000780
:1006000049050BD58068C00508D5206C40F0200056
:10061000206484F83C700120BDE8F08100F0EEF920
:1006200006460FE0681C0DD025B100F0E7F9801BED
:10063000A84207D9206C40F00400206484F83C7084
:100640000320E9E7206800688007EBD521686FF098
:1006500012000860206C40F40070206420688168FB
:1006600011F0405F13D1217E89B9C16A11F4700F76
:1006700002D0806840050AD4206C20F48070206489
:10068000206CC00403D4206C40F0010020640020E2
:10069000C2E7000018B50021009190F83C20012A23
:1006A00007D0012280F83C2002689368DB0702D063
:1006B00011E0022018BD936843F0010393602A4AB9
:1006C0002A4B1268B2FBF3F202EB420200E0521E28
:1006D0000092002AFBD102689368DB0741D0036CCB
:1006E00040F20164A34343F48073036453685B05E1
:1006F00005D5036C23F4005343F480530364036C67
:10070000DB0404D5436C23F00603436400E041643A
:1007100080F83C1016496FF02203136049680068A6
:10072000CA06144906D088421BD1816811F0405F87
:1007300013D016E08842F8D00F4A904203D1D1F886
:100740000423D206F1D00D4A90420AD1D1F8041305
:1007500001F01F011029E8D303E0816841F08041D6
:100760008160002018BD00002000002040420F00E2
:1007700000230140002001400021014000220140EF
:1007800090F83C1001290CD0012180F83C10016840
:100790008A6822F001028A6001688968C90702D06C
:1007A00007E002207047016C21F4885141F00101FB
:1007B0000164002180F83C100846704770B504467B
:1007C00000F01CF90546601C02D00448007804447F
:1007D00000F014F9401BA042FAD370BD14000020B1
:1007E0000E49C3074FF0010204D04868002808D121
:1007F0008A6005E0830705D58868002801D14A6032
:10080000CA6070474007FCD588680028F9D148685D
:100810000028F6D188604860C8607047000000205A
:10082000044910B50A68024202D00860FFF7D8FFF9
:1008300010BD0000143C01402DE9F84F00224FF09C
:10084000010803254FF00F0E0B6808FA02F423404D
:10085000A3426ED14E68012E05D0022E03D0112E78
:1008600001D0122E12D186684FEA420C05FA0CF71D
:10087000BE43CF6807FA0CF7374387604668A64344
:100880000C79C4F30014944034434460C6685700A4
:1008900005FA07FC8C6826EA0C06BC403443C460A9
:1008A0004C68022C01D0122C13D1D40800EB840424
:1008B000A346D4F8209054074FEAD46A0EFA0AF6F9
:1008C00029EA06090E6906FA0AF646EA0906CBF88D
:1008D000206006680C7926EA0C0604F00304BC408C
:1008E000344304604C68E40065D5364C266846F411
:1008F00080462660246822F0030604F480440094B5
:10090000314C3444A446D4F808489607370F0EFA01
:1009100007F6B4432D4EB04201D1002624E02C4E00
:10092000B04201D101261FE02A4EB04202D1022678
:100930001AE040E0284EB04201D1032614E0274ED1
:10094000B04201D104260FE0254EB04201D1052668
:100950000AE0244EB04201D1062605E0224EB04204
:1009600001D1072600E00826BE402643CCF80868DF
:100970001E4E34684F689C43FF0300D51C4334600F
:100980001A4C241D26684F689E43BF0300D51E43A2
:100990002660164E083634684F689C43FF0200D527
:1009A0001C433460114E0C3634684F689C43BF02C0
:1009B00000D51C433460521C102AFFF445AFBDE83B
:1009C000F88F00004438024000300140000002402F
:1009D0000004024000080240000C024000100240E7
:1009E0000014024000180240001C0240003C01407C
:1009F0000AB1816170470904FBE700000148806883
:100A000070470000140000200248816802781144F9
:100A100081607047140000200B4810B5016841F454
:100A200000710160016841F480610160016841F476
:100A300080710160032000F07FF8002000F006F8CC
:100A400000F024F8002010BD003C024070B50D4DB0
:100A500004464FF47A712878B1FBF0F00A4909682E
:100A6000B1FBF0F000F006FB48B9102C07D20022D1
:100A70002146501E00F040F800206C6070BD01203F
:100A800070BD000014000020200000200A4808B5B6
:100A9000016841F480410160006800F480400090EA
:100AA0000548001F016841F080510160006800F0B6
:100AB0008050009008BD00004438024000280DDB43
:100AC00000F01F02012191404009800000F1E02068
:100AD000C0F88011BFF34F8FBFF36F8F70470028AE
:100AE00009DB00F01F02012191404009800000F164
:100AF000E020C0F800117047F0B40E4B1B680C46A4
:100B0000C3F30223C3F10705042D00D90425191DE1
:100B1000072901D2002300E0DB1E012606FA05F1B9
:100B2000491E214099409E40761E16403143F0BC3C
:100B300000F022BE0CED00E0064900F00702086854
:100B40004FF6FF03184040EA0220034A10430860B2
:100B5000704700000CED00E00000FA052DE9F047B9
:100B60000E46050065D0DFF81481D8F80000F7B212
:100B700000F00F00B04207D288F80070D8F80000EB
:100B800000F00F00B04254D128683D4C810712D5C7
:100B9000400703D5206840F4E05020602878000723
:100BA00003D5206840F4604020602068A96820F0E8
:100BB000F000084320602878C0072DD030496868CD
:100BC0000839012812D0022813D0032811D009684F
:100BD000890700292DDA216821F0030101432160F2
:100BE000FFF70CFF814641F2883A0EE0096889035D
:100BF000EFE709688901ECE7FFF700FFA0EB0901C7
:100C0000514502D90320BDE8F0872068696800F0EB
:100C10000C00B0EB810FEFD1D8F80010404601F086
:100C20000F01B14207D90770006800F00F00B04211
:100C300001D00120E7E72878400705D52068E9685A
:100C400020F4E050084320602878000706D520688B
:100C5000296920F4604040EAC100206000F01EF8DD
:100C60002168084AC1F30311515CC8400649086075
:100C700006480068FFF7EAFE0020C4E7003C024097
:100C800008380240541900082000002018000020F5
:100C9000014800687047000020000020154810B58A
:100CA000006810F00C02144813D01449042A0FD025
:100CB000082A0ED10F4C241F2268236802F03F023D
:100CC0005B0207D52068C0F38810A0FB010106E095
:100CD000084610BD2168C1F38811A1FB0001002363
:100CE000FFF76EFA2168C1F30141491C4900B0FBCE
:100CF000F1F010BD083802400024F40040787D0176
:100D00002DE9F84F040076D02078DFF838A3CE4DD7
:100D1000C00749D0DAF800105046C1F3810101291B
:100D200008D00068C0F3810002280AD1281D00689D
:100D3000400206D52868800336D560680028E2D0D6
:100D400032E06068B0F5803F10D0B0F5A02F286881
:100D500010D020F480302860286820F4802028609B
:100D60006068A0B1FFF74AFE06460CE0286840F430
:100D70008030F4E740F480202860F7E7FFF73EFE7C
:100D8000801B642873D828688003F7D50CE0FFF730
:100D900035FE064605E000BFFFF730FE801B6428E5
:100DA000F0D828688003F7D42078DFF8A082800785
:100DB0004FF000093ED5DAF80010504611F00C0F44
:100DC00009D00068C0F3810002280BD19D48001FA4
:100DD0000068400206D42868800715D5E06801281D
:100DE00009D111E0E068B8B10120C8F80000FFF7B0
:100DF00005FE064605E020E1FFF700FE801B022805
:100E0000C0D828688007F7D52868216920F0F80045
:100E100040EAC10028600DE0C8F80090FFF7EEFD41
:100E2000064604E0FFF7EAFD801B02281FD8286869
:100E30008007F7D42078000722D5824E8448616964
:100E40006C3671B101210160FFF7D8FD074604E05F
:100E5000FFF7D4FDC01B022809D830688007F7D5FA
:100E60000EE0C0F80090FFF7C9FD074605E082E0FC
:100E7000FFF7C4FDC01B02287DD830688007F7D477
:100E80002078400768D5DFF8BCB100270BF1380B9C
:100E9000DBF80000C0000BD4DBF8001041F08051FB
:100EA000CBF80010DBF80000012700F08050009024
:100EB000684E3068C00510D4306840F480703060EF
:100EC000FFF79CFD009005E0FFF798FD0099401AA0
:100ED000022850D83068C005F6D55A4EA06868364A
:100EE00001280FD00528306810D020F001003060B4
:100EF000306820F004003060A068B8B1FFF77EFDD4
:100F000000900FE0306840F00100F4E740F004008A
:100F10003060F7E7FFF772FD0099411A41F288301F
:100F2000814266D830688007F4D50EE0FFF766FD91
:100F3000009007E0FFF762FD0099411A41F2883006
:100F4000814256D830688007F4D42FB1DBF8001006
:100F500021F08051CBF80010A069D0B3DAF800205E
:100F60005146C2F38102022A4AD00228484607D0DD
:100F7000C8F8600000E03CE0FFF740FD04463BE0BD
:100F80004746C8F86000FFF739FD064605E000BF98
:100F9000FFF734FD801B02282BD828688001F7D486
:100FA000D4E907010843A16A2B4A490802EB014131
:100FB000626A41EA8211084394F82C1040EA016108
:100FC0002048001F016001203866FFF717FD044626
:100FD00005E034E0FFF712FD001B022809D828685D
:100FE0008001F7D52BE000BFFFF708FD001B0228AA
:100FF00002D90320BDE8F88F28688001F4D41EE0F0
:101000000128F7D00868E26900F48001914214D108
:10101000226A00F03F0191420FD147F6C071626A27
:101020000140914209D1A26A00F44031914204D1B9
:10103000E16A00F07060884201D00120DAE7002008
:10104000D8E700000838024000380240000047425C
:10105000800E4742007000400000FFFF4FF0E0218B
:101060000428086903D020F004000861704740F0AC
:101070000400FAE710B5401EB0F1807F01D30120D3
:1010800010BD4FF0E02460610F21601700F074FB89
:101090000020A06107202061002010BD704770472C
:1010A00070B590F83C20012A32D0012480F83C40F1
:1010B000022280F83D2003685A689D6822F070067D
:1010C0000A6832435A60134B02689A4214D0B2F154
:1010D000804F11D0104B9A420ED0104B9A420BD039
:1010E0000F4B9A4208D00F4B9A4205D00E4B9A42B2
:1010F00002D00E4B9A4204D1496825F0800319436F
:10110000916080F83D40002180F83C10084670BD99
:10111000022070BD000001400004004000080040B3
:10112000000C004000040140004001400018004055
:1011300010B5040003D094F83D0010B107E0012081
:1011400010BD002084F83C00204600F00DF802207D
:1011500084F83D00211D206800F074FA012084F815
:101160003D00002010BD000008B50068B0F1804FC0
:1011700012D10A48016841F00101016000680022B3
:1011800000F00100009011461C20FFF7B5FCBDE8FF
:1011900008401C20FFF7A3BC08BD000040380240F7
:1011A000022180F83D1001688A6802F00702062AD1
:1011B00003D00A6842F001020A60012180F83D1064
:1011C0000020704770B5044690F83C00012817D005
:1011D000012584F83C50022084F83D002068826894
:1011E00022F0770222F47F4282600868502830D0D3
:1011F0000DDC20284DD005DC98B310283BD148E009
:10120000022070BD302844D0402834D139E0602815
:1012100028D0702806D0B0F5805F2CD0B0F5005FE4
:1012200029D10AE0CB68D1E90121206800F06EFAEB
:101230002068816841F0770109E0CB68D1E901219C
:10124000206800F063FA2068816841F48041816081
:1012500011E0CA684968206800F06AFA50212068E5
:1012600007E016E0CA684968206800F072FA602159
:10127000206800F055FA84F83D50002084F83C00C6
:1012800070BDCA684968206800F052FA40212068A1
:10129000EFE7226801461046EBE7704770B5044659
:1012A000006801694FF00005C943890715D4C1687A
:1012B000C943890711D4E91E016101202077206804
:1012C00080698007204602D0FFF7E7FF04E000F0C6
:1012D00098F8204600F096F8257720680169C94300
:1012E000490717D4C168C943490713D46FF00401F3
:1012F0000161022020772068806910F4407F204639
:1013000002D0FFF7CAFF04E000F07BF8204600F0AF
:1013100079F8257720680169C943090716D4C1689F
:10132000C943090712D46FF0080101610420207736
:101330002068C0698007204602D0FFF7AEFF04E0B6
:1013400000F05FF8204600F05DF82577206801691D
:10135000C943C90617D4C168C943C90613D46FF07D
:1013600010010161082020772068C06910F4407FD7
:10137000204602D0FFF791FF04E000F042F820463B
:1013800000F040F8257720680169C943C90708D1F2
:10139000C168C943C90704D1891E0161204600F014
:1013A00033F820680169C943090609D4C168C943F3
:1013B000090605D46FF0800101612046FFF76EFE3B
:1013C00020680169C943490609D4C168C94349066F
:1013D00005D46FF040010161204600F01BF8206841
:1013E0000169C94389060BD4C168C943890607D47A
:1013F0006FF0200101612046BDE87040FFF74FBE4D
:1014000070BD7047704700000149012008607047B7
:10141000000000207047FEE710B50448FFF788FE83
:10142000BDE810400148FFF7BBBE00006C00002083
:101430007FB5002411480094019402940E4903944E
:10144000C0E9001484600461047680F820400C49EF
:10145000C0E90A140125C561C46080F830404561C7
:10146000FFF76BF80720CDE90005694602940348B1
:10147000FEF7BAFF7FBD00000020014024000020DD
:101480000100000F70B586B014216846FEF7D0FE4B
:1014900022480024016841F001010160016801F067
:1014A00001010591016841F00801016000681C4ECE
:1014B00000F008004FF4704505902246294630465A
:1014C000FFF796FA072000901648CDE90104694617
:1014D0001548FFF7B1F901200095CDE901046946EF
:1014E00030460394FFF7A8F9002211460620FFF7C3
:1014F00003FB0620FFF7F3FA002211460720FFF74F
:10150000FBFA0720FFF7EBFA002211460820FFF74D
:10151000F3FA0820FFF7E3FA06B070BD3038024056
:10152000000C0240000011100000024010B586B00F
:1015300000241248009401940294039404944FF000
:101540008041059401604FF47A51C0E9011444F6DA
:101550002061C0E903148461FFF7EAFD4FF4805075
:10156000009069460548FFF72DFE049404A903483E
:101570000594FFF795FD06B010BD00006C0000203B
:10158000FEE7704770477047FFF73EBA10B592B05C
:1015900030216846FEF74CFE14210CA8FEF748FEE9
:1015A0001C480024016841F080510160006800F08F
:1015B000805011901848016841F480410160006832
:1015C000069400F4804011900220009001200390C6
:1015D000102004906846FFF793FB0F20CDE90C0420
:1015E0000E940F9400210CA81094FFF7B7FAFFF7A0
:1015F0004FFB4FF47A71B0FBF1F0FFF73BFD042095
:10160000FFF72CFD00221146501EFFF775FA12B0AD
:1016100010BD0000403802400070004005480168DD
:1016200041F47001016003494FF0006080390860A7
:101630007047000088ED00E00148FFF72FBE000072
:101640006C000020F0B50268254C264D264E274F31
:10165000274B4FF0804CA04209D0604507D0A842EC
:1016600005D0B04203D0B84201D0984204D122F054
:10167000700E4A6842EA0E02A0421BD0604519D0A3
:10168000A84217D0B04215D0B84213D0984211D01A
:10169000184DA8420ED0184DA8420BD0174DA842A5
:1016A00008D0174DA84205D0164DA84202D0164DBD
:1016B000A84203D122F44075CA682A434D6922F03A
:1016C00080022A4302608A68C2620A688262A0427B
:1016D00001D0984201D10969016301214161F0BD46
:1016E000000001400004004000080040000C0040E1
:1016F0000004014000400140004401400048014016
:1017000000180040001C00400020004010B5846814
:1017100042EA032224F47F440A432243826010BD3C
:10172000826822F070020A4342F00701816070472C
:1017300010B5036A046A24F001040462846924F089
:10174000F00444EA021423F00A020A4384610262AC
:1017500010BD10B5036A23F0100303628369046AA5
:1017600023F4704343EA023224F0A00343EA011158
:101770008261016210BDFEE70907090E002804DB43
:1017800000F1E02080F80014704700F00F0000F135
:10179000E02080F8141D704702E008C8121F08C13D
:1017A000002AFAD170477047002001E001C1121FE2
:1017B000002AFBD17047000010B50122D103044874
:1017C000FFF716F9BDE810404FF4FA70FEF7F6BFC8
:1017D000000C024070B50E4C012211032046FFF7A9
:1017E00007F94FF4FA752846FEF7E8FF0122510386
:1017F0002046FFF7FDF82846FEF7E0FF012291039F
:101800002046FFF7F5F82846BDE87040FEF7D6BF42
:10181000000C024010B5FFF7DDFF07480024016807
:101820004C62006840F6C411426A8A42FCD3FFF75A
:10183000C3FF0248846010BD6C000020000000203F
:10184000FFF7EAF8FFF7A2FEFFF71CFEFFF7F0FD37
:10185000FFF76CFEFFF7E0FDFFF7DCFF00F064F838
:10186000154C4FF47A754FF416760620FFF726F9DB
:101870000620FFF734F9E06848B1606808B100F06D
:1018800053F8A0680028F0D0FFF7C4FFEDE70B483D
:10189000FEF700FF29460948FEF7AAFE18B90748D7
:1018A000FEF748FE20610548FEF76AFF2069B04256
:1018B000EADD00F039F8D8E700000020240000201D
:1018C00010B500224FF480510448FFF791F8BDE8AD
:1018D00010404FF4FA70FEF771BF0000000C024098
:1018E00070B5104C00224FF400412046FFF780F8FD
:1018F0004FF4FA752846FEF761FF00224FF480414D
:101900002046FFF775F82846FEF758FF00224FF4EF
:1019100000512046FFF76CF82846BDE87040FEF7FE
:101920004DBF0000000C024010B5FFF7D9FF07487B
:10193000002401684C62006840F6C411426A8A4281
:10194000FCD3FFF7BDFF0248446010BD6C000020CF
:10195000000000200000000000000000010203045D
:101960000607080984190008000000202400000070
:1019700098170008A8190008240000208C04000013
:10198000A81700080100000000000000000000008F
:101990000000000000000000010000001000000036
:0819A000000000000024F40027
:040000050800018965
:00000001FF
